:0C0000000C9452000C9400000C940000C2
:10000C000C9400000C9400000C9400000C94000064
:10001C000C947F000C9400000C9400000C940000D5
:10002C000C9400000C9400000C9400000C94000044
:10003C000C9400000C9400000C9400000C94000034
:10004C000C9400000C940000333238353030003002
:10005C004C434420436C6F636B003A002E0080C00D
:10006C0001002D4E414E00494E4600000800040090
:10007C0054000A0060025C0002006A026600020082
:10008C006C02660002006E026800020070026A00D8
:10009C00010074026C000000F894EE27ECBBF1E058
:1000AC00FBBFEBBFE5BF8DE0A2E0BB27ED938A95CC
:1000BC00E9F780E098E0A0E6ED930197E9F7E8E72F
:1000CC00F0E085919591009761F0A591B59105901F
:1000DC001590BF01F00105900D920197E1F7FB011E
:1000EC00F0CFEFE5EDBFE8E0EEBFC0E6D2E00C9458
:1000FC00C900EA93EFB7EA93B394EAE3EB1581F501
:10010C00E0E3BE2E8394EAE3E81551F5E0E38E2E8E
:10011C009394E6E3E91521F5E0E39E2E6394EAE37C
:10012C00E615F1F4E0E36E2E7394E6E3E715C1F403
:10013C00E0E37E2E4394E2E3E51519F4E4E3E415E1
:10014C0009F008C0E0E35E2E4E2E7E2E6E2E9E2E03
:10015C008E2E06C0EAE3E41519F4E0E34E2E539418
:10016C00E991EFBFE9911895BA93AA93E8810E949F
:10017C00CA01AC81B5D0E881EF5F0E94CA01AA81A7
:10018C00AFD026960895E0E0EABBEBBBE7BBE8BB3B
:10019C00E4BBE5BBE1BBE2BBE3BFE2BFECBFEFBD41
:1001AC00ECE0EEBDE0E0EDBDECBDE7BDE6BDECE0A6
:1001BC00EBBDE5E3EABDE0E0E9BDE8BDE2BDE5BDD0
:1001CC00E4BDE3BDE0E1E9BFE0E0E5BFE4BFEAB9CF
:1001DC00E0E8E8B9E0E0E0BFE6B9EDB9E6BFA0E1E0
:1001EC00A5D07894E4E0EA93A0E061D0A0E6B2E078
:1001FC008CD0E52DF0E0FA93EA93E42DF0E0FA933D
:10020C00EA93A3E0B0E0B0DFE5E00E94CA01AAE601
:10021C00B2E07BD0E72DF0E0FA93EA93E62DF0E024
:10022C00FA93EA93A6E0B0E09FDFE8E00E94CA01EF
:10023C00ACE6B2E06AD0E92DF0E0FA93EA93E82D4F
:10024C00F0E0FA93EA93A9E0B0E08EDFEBE00E94D5
:10025C00CA01AEE6B2E059D0ECE00E94CA01AB2D67
:10026C003FD0A2E3B0E00E94DC01BCCFFFCFAA9349
:10027C00E5B3EF70AE2FE881E07FEA2BE5BB8DE0B4
:10028C008A95F1F7AA9A8DE08A95F1F7AA988DE0F4
:10029C008A95F1F777C0AA93A881E9DFE881E29506
:1002AC00E883A881E4DF85E88A95F1F76BC0AA930F
:1002BC00E881F0E0E059FD4FE081A981AE0FEBDF62
:1002CC00A980D88022960895A2E00E94CE01ACE0CD
:1002DC00E2DFA1E00E94CE01E0E0DE2EAE2E08951A
:1002EC00AA93A881AA3011F0AC1448F0E0E0EA938C
:1002FC00D394AD2DDCDFA881AA3009F443C0A394BC
:10030C00A89AA881C8DFA8983DC0BA93AA931A935B
:10031C00A981BA81ED91A983BA831E2FE03019F01F
:10032C00A12FDEDFF5CF188123960895AA93E4B3AD
:10033C00E06FE4BBA29AA09AA19AAA98A898A9984F
:10034C00C880E881E058E0937202E881E054E093C1
:10035C007302A4E1B0E00E94DC010E94D4010E946F
:10036C00D4010E94D401A0E282DF88EC90E00197D6
:10037C00F1F7A8E290DFA4E08EDFA5E88CDFA6E021
:10038C008ADFA2DF21960895EA93A1E00C945D0127
:10039C000E945101A3E0B0E00C94DC01A0E30E94A8
:1003AC003D0188EC90E00197F1F70895109639F033
:1003BC0080ED97E00197F1F7A8951197C9F708958B
:00000001FF
