:020000000C945E
:1000020041000C946E000C9476000C947E000C94CB
:1000120000000C9400000C9400000C9400000C945E
:1000220000000C9400000C9400000C9400000C944E
:1000320000000C9400000C9400000C9400000C943E
:1000420000000C9400000C9400000C9400000C942E
:10005200000000002020000001002D4E414E00490A
:100062004E46000080C002000400540003006002FB
:100072005600010063025A00020067026600000097
:10008200F894EE27ECBBF1E0FBBFEBBFE5BF8DE0E0
:10009200A2E0BB27ED938A95E9F780E098E0A0E61D
:1000A200ED930197E9F7E8E6F0E0859195910097E5
:1000B20061F0A591B59105901590BF01F0010590F1
:1000C2000D920197E1F7FB01F0CFEFE5EDBFE8E01C
:1000D200EEBFC0E6D2E00C948B000E94830119F4BB
:1000E200EAE05E0E01C0539411C00E94830119F42C
:1000F200EAE05E1A01C05A9409C00E94830119F411
:100102004424AB9803C0E1E04E2EAB9AE991EFBFD5
:10011200E9911895E0E0EABBEBBBE7BBE8BBE8E09E
:10012200E4BBE0E0E5BBE1BBE2BBEBB7E06EEBBFFB
:10013200EAE0E5BFE0E0E4BFE0EEEABFE0E8E8B90C
:10014200E0E0E0BFA0E10E94550178942297E0E050
:10015200E883E983EA93A0E00E941601E52DF0E02E
:10016200E7FDFFEFFA93EA93AA81BB810E94C800E0
:10017200A881B9810E944401A0E6B2E00E94440134
:10018200A2E3B0E00E9497012296E0CFFFCFBA939C
:10019200AA93A991B991E991F99130962AF4E0953F
:1001A200F09531966DE26D93E89480E197E20DD07F
:1001B20088EE93E00AD084E6992707D08AE005D03A
:1001C2006E2F10D066276C9308956627E817F907FB
:1001D20020F06395E81BF90BC9F7662311F416F0BA
:1001E20008956894605D6D930895AA93E5B3EF70E6
:1001F200AE2FE881E07FEA2BE5BB8DE08A95F1F72F
:10020200AA9A8DE08A95F1F7AA988DE08A95F1F77E
:1002120077C0AA93A881E9DFE881E295E883A88103
:10022200E4DF85E88A95F1F76BC0AA93E881F0E0F4
:10023200E959FD4FE081A981AE0FEBDF798068803B
:1002420022960895A2E00E948901ACE0E2DFA1E0DB
:100252000E948901E0E06E2E7E2E0895AA93A88165
:10026200AA3011F0791448F0E0E0EA936394A62DE5
:10027200DCDFA881AA3009F443C07394A89AA8814C
:10028200C8DFA8983DC0BA93AA931A93A981BA81EC
:10029200ED91A983BA831E2FE03019F0A12FDEDF82
:1002A200F5CF188123960895AA93E4B3E06FE4BBD7
:1002B200A29AA09AA19AAA98A898A9989880E88147
:1002C200E058E0936902E881E054E0936A02A4E115
:1002D200B0E00E9497010E948F010E948F010E944C
:1002E2008F01A0E282DF88EC90E00197F1F7A8E2AB
:1002F20090DFA4E08EDFA5E88CDFA6E08ADFA2DF34
:1003020021960895EA93EFB7EA93E1E0E4150895A0
:100312000E940A01A3E0B0E00C949701A0E30E94BE
:10032200F60088EC90E00197F1F70895109639F005
:1003320080ED97E00197F1F7A8951197C9F7089515
:00000001FF
