:080000000C944B000C9400006D
:100008000C9400000C9400000C9400000C94000068
:100018000C9400000C9400000C9400000C94000058
:100028000C9400000C9400000C9400000C94000048
:100038000C9400000C9400000C9400000C94000038
:100048000C9400000C9400000C9400001027E803A6
:1000580064000A00010000100001100001004E6950
:100068006B69204E657A616B617469004E696B69D2
:10007800000080C00E006002660005006E02740079
:10008800090073026B0002007C027A000000F894F9
:10009800EE27ECBBF1E0FBBFEBBFE5BF8DE0A2E0D4
:1000A800BB27ED938A95E9F780E098E0A0E6ED9309
:1000B8000197E9F7ECE7F0E085919591009761F0F9
:1000C800A591B59105901590BF01F00105900D928D
:1000D8000197E1F7FB01F0CFEFE5EDBFE8E0EEBFF8
:1000E800C0E6D2E00C948E00BA93AA935524A88156
:1000F800B981EE27A50DBE1FEC91E03051F0A88123
:10010800B981EE27A50DBE1FAC910E9467015394DB
:10011800EECF71C000E0E0E0EBB9E8E1EAB9E6E86B
:10012800E0BDE0E0E0BDE3E3E9B9A0E19AD00E94D8
:1001380063011E2FA12F6DD0A12F0E9467011334D8
:1001480021F45BD00E946E0127C01E3441F40E9446
:100158006E01A0E6B2E0C8DF0E946E011DC0133632
:1001680041F400E0083120F40E946E010F5FFACFDD
:1001780013C01D3489F40E946E013FD0E6E0EA9373
:10018800A0E02ED0AEE6B2E05BD0E4E0EA93A1E0D6
:1001980027D0A3E7B2E054D0CACFFFCFAA93E5B3E4
:1001A800EF70AE2FE881E07FEA2BE5BB8DE08A9502
:1001B800F1F7AA9A8DE08A95F1F7AA988DE08A95C9
:1001C800F1F70C946C01AA93A881E8DFE881E29525
:1001D800E883A881E3DF85E88A95F1F70C946C0140
:1001E800AA93E881F0E0E458FD4FE081A981AE0FC1
:1001F800EADF4980788022960895A2E00E9474017F
:10020800ACE0E1DFA1E00E947401E0E07E2E4E2E1A
:100218000895AA93A881AA3011F0461450F0E0E09E
:10022800EA937394A72DDCDFA881AA3011F40C940B
:100238006C014394A89AA881C6DFA8980C946C0115
:10024800BA93AA931A93A981BA81ED91A983BA8323
:100258001E2FE03019F0A12FDCDFF5CF188123968F
:100268000895AA93E4B3E06FE4BBA29AA09AA19A76
:10027800AA98A898A9986880E881E058E0937E0237
:10028800E881E054E0937F02A4E1B0E00E9482019B
:100298000E947A010E947A010E947A01A0E27EDF20
:1002A80088EC90E00197F1F7A8E28DDFA4E08BDFFE
:1002B800A5E889DFA6E087DFA0DF0C946C015F9BCF
:1002C800FECFECB10895AA935D9BFECFE881ECB90F
:1002D80021960895ADE00E946701AAE00C94670199
:1002E8000E94E700A3E0B0E00C948201A0E30E9422
:1002F800D20088EC90E00197F1F70895109639F054
:1003080080ED97E00197F1F7A8951197C9F708953F
:00000001FF
