:080000000C943D010C9400007A
:100008000C9400000C9400000C9400000C94000068
:100018000C9400000C9400000C9400000C94000058
:100028000C9400000C9400000C9400000C94000048
:100038000C9400000C9400000C9400000C94000038
:100048000C9400000C9400000C940000050720603C
:10005800000000000000005F000000070007001417
:100068007F147F14242A7F2A1223130864623649D6
:100078005522500005030000001C224100004122C7
:100088001C00082A1C2A0808083E080800503000EE
:100098000008080808080030300000201008040292
:1000A8003E5149453E00427F400042615149462148
:1000B80041454B311814127F1027454545393C4AB4
:1000C8004949300171090503364949493606494904
:1000D800291E00363600000056360000000814229B
:1000E8004114141414144122140800020151090681
:1000F800324979413E7E1111117E7F494949363E88
:10010800414141227F4141221C7F494949417F09A0
:100118000901013E414151327F0808087F00417FB3
:1001280041002040413F017F081422417F40404068
:10013800407F0204027F7F0408107F3E4141413E18
:100148007F090909063E4151215E7F091929464662
:100158004949493101017F01013F4040403F1F208B
:1001680040201F7F2018207F63140814630304783D
:100178000403615149454300007F414102040810CE
:100188002041417F000004020102044040404040F9
:10019800000102040020545454787F4844443838FD
:1001A80044444420384444487F3854545418087E02
:1001B800090102081454543C7F0804047800447D63
:1001C80040002040443D00007F10284400417F400B
:1001D800007C041804787C080404783844444438C3
:1001E8007C14141408081414187C7C0804040848A7
:1001F80054545420043F4440203C4040207C1C2060
:1002080040201C3C4030403C44281028440C5050AE
:10021800503C4464544C44000836410000007F00C0
:1002280000004136080002010204027F4141417F7B
:10023800000103070F1F3F7FFF004E696B69204EC7
:10024800657A616B61746900393835323230393416
:10025800000001002D4E414E00494E4600000E00A0
:100268006002420209006E025002010097025A021F
:100278000000F894EE27ECBBF1E0FBBFEBBFE5BF55
:100288008DE0A2E0BB27ED938A95E9F780E098E03E
:10029800A0E6ED930197E9F7E6E6F2E085919591FE
:1002A800009761F0A591B59105901590BF01F001F7
:1002B80005900D920197E1F7FB01F0CFEFE5EDBF57
:1002C800E8E0EEBFC0E6D2E00C946A012697EFEFB3
:1002D800EABBE0E0EBBBEFEFE7BBE0E0E8BBE4BB89
:1002E800E5BBE1BBE2BBE4E5F0E0E883F983E0E0ED
:1002F800EA83EB83EC83ED83DE0149D1ADD1E5E000
:10030800EA93A0E00E94F206A0E6B2E00E94C606C8
:10031800E5E0EA93A7E30E94F206AEE6B2E00E94A7
:10032800C6060E94650AEEE1EA93E6E3EA93E2E68E
:10033800EA93A6E30E94FF06E2E6EA93E6E3EA937D
:10034800E2E60E946B0AEEE1EA93E0E2EA93EEE16C
:10035800EA93A6E30E94FF06E4E1EA93E0E2EA9367
:10036800EEE10E946B0AE2E6EA93E0E2EA93ECE649
:100378000E946B0AECE6EA93E0E2EA93E0E40E946A
:100388006F0AE0E4EA93E5E0EA93E8E2EA93A4E19D
:100398000E94FF06E8E2EA93E4E1EA93E8E20E94B9
:1003A800730AE8E2EA93EAE0EA93EDE20E94730A4C
:1003B800EDE2EA93EAE0EA93EDE20E946F0AEDE2E9
:1003C800EA93E5E0EA93E9E10E946F0AE9E1EA933A
:1003D800E5E0EA93E9E10E94730AE9E1EA93EAE0D9
:1003E800EA93EEE10E94730AEEE1EA93EAE0EA9307
:1003F800EEE1EA93A9E10E94FF06EEE1EA93E9E162
:10040800EA93E4E10E946B0A0E94650A4424552499
:100418000E94770A54F40E947C0AEE5FEA930E94D5
:10042800810AF20131962F01F3CF44245524EFE1DC
:10043800F0E0E415F50554F00E947C0AE45CEA93C8
:100448000E948D0AF20131962F01F1CF44245524E0
:100458000E94770A5CF40E947C0AA6E7AE1BAA9366
:100468000E94810AF20131962F01F2CF44245524CB
:100478000E94770A5CF40E947C0AACE3AE1BAA9344
:100488000E948D0AF20131962F01F2CF37CFFFCFAC
:100498000000C09A00000895C098C498C5980895AF
:1004A8001A93F6DF19B3C098E12F19910895AA930A
:1004B8001A93E0E0EABBC19AC298E981EF5F1E2F68
:1004C80010FF02C0C49A01C0C49811FF02C0C59AA7
:1004D80001C0C598E5DFE078E9F718811FC1AA9344
:1004E800A981E5DF0E94980A19C1E0919502EA9373
:1004F800E0919402EF73E064AE2FF1DFE091950292
:10050800EA93E0919602E86BAE2FE9DF0895AA938B
:10051800E981E0939402E295EF70E695E695E09321
:100528009502E881E0939602E0DFF8C0A09194027A
:10053800AF5FA0939402A03818F0E0E0E093940233
:10054800E0919402EF7331F4E0919402EA93A09160
:100558009602DDDF0895AA93A0919502A8DFC29ABA
:100568000E94980A21960895A0919502A0DFE0E0E4
:10057800EABBC19AC29A94DF0895AA93E981EA93E3
:10058800E9810E94A10AF0DFB0DFEEDFC7C0BA93AD
:10059800AA931A93B89AB99ABA9ABB9AC39ABC9A68
:1005A800BD9A7ADFC398A4E6B0E00E94910BC39A83
:1005B80010E0123040F41A93AFE391DF1A931395C9
:1005C800A0EC8DDFF6CFE1E0E0937702E0E0E09386
:1005D8007802E981FA813097A9F0A981BA810E944D
:1005E800C10BE0937B02F0937C0212960E94C10B30
:1005F800E0939002F0939102A981BA8114960E9427
:10060800C10B0AC0E0E0F0E0E0937B02F0937C02CB
:10061800E0939002F0939102E0939202F093930298
:10062800E1E0E0937D02E0937E02E0937F02EFEF4A
:10063800E0938002E1E0E0938702E8E8F2E0FA93D1
:10064800EA93EFEFEA93A8E0B0E00E94E40904D04F
:10065800E1E01881239608950E94E80B00E030E05D
:10066800E0917802E03009F00FEF383078F4E0E0FC
:10067800EA93A32F3F5F4BDF10E0A12F1F5FA03845
:1006880020F4A02F0E94A70AF8CFEFCFE0E0EA936A
:10069800A0E03DDFE0E0EA93A0E0A0D30E94EF0BEA
:1006A80024960895AA931A930A93AC81A03818F453
:1006B800AB81A03408F016C0EC81EA93AC815DDF11
:1006C8001E2F13DFEB81E770A1E00E949F0B0E2F16
:1006D800EA81E03011F0102B03C0E02FE0951E23D3
:1006E800A12F39DF1981088125960895AA93A98138
:1006F800A03818F4A881A03410F0E0E00FC0E98118
:10070800EA93A9813ADF1E2EE881E770A1E00E94F2
:100718009F0BE12111F0E1E001C0E0E0229608958D
:10072800AA931A93ED81EA93AD8127DF1E2FDDDEB0
:10073800E981E73011F0E83039F4EB81EA93AA81D6
:100748000E94FF09EB8308C0E33021F4EB81E095B8
:10075800EB8302C0E03021F4EA81E0951E2302C059
:10076800E23029F4EA81AB81EA231E2B0EC0E13086
:1007780029F4EA81AB81EA231E2707C0E43029F473
:10078800EA81E095AB81EA2B1E23A12F0E94A70ADC
:10079800188126960895AA9323970E94E60BA889A4
:1007A800A03848F4AF85A03430F4AE85A03019F0F5
:1007B800AD85A03009F4C8C1EE85E887A889BB27B4
:1007C800EE85F0E0AE0FBF1FA138E0E0BE0720F0D5
:1007D800A889E0E8EA1BEE872D85AF85BB27ED8564
:1007E800F0E0AE0FBF1FA134E0E0BE0720F0AF85F8
:1007F800E0E4EA1BED87A985A63009F05BC0EC852B
:10080800E13009F4A1C1E33039F4E0919202F091AA
:100818009302309709F498C10885ED85E695E69529
:10082800E6953E2FE22FE77019F4AD852A17E9F017
:10083800A02FBB27E32FF0E00E94B90BAA85BB8548
:100848000E94AB0A269526952695532F5F935F5FE6
:10085800E22FAF91EA1748F0102FE12F1150E03046
:1008680019F00E94B00AF9CFF1CFAE850A1711F13D
:10087800EE85AA85BB85F0E00E94AB0AED85E7709E
:1008880009F03F5F20E02F932F5FE32FAF91AE1762
:1008980088F41E851F931F5FE02FAF91AE1718F4E1
:1008A8000E94B00AF7CFEE85AE81BF81F0E00E94CA
:1008B800AB0AE9CFEF85E7703E2FED85E03009F40C
:1008C80043C1EA85FB85EE83FF8310E00889303059
:1008D80009F065C0AD85A83008F45CC0E985E03052
:1008E80011F0E33009F402C0E73009F402C0E8303F
:1008F80009F402C0E63009F402C0E93009F402C084
:10090800EA3021F40A93E8890E94A10A1F931F5F25
:10091800EE85AF91AE17B8F5A985A63061F424DE4F
:10092800E4DD0E94BD0AFA93EA931EDEAE2F0E9410
:10093800460AFCDD27C0E985E93011F450E00EC015
:10094800EA3011F45FEF0AC00E94BD0A0E94C60A8D
:100958005E2FE985E73011F0E83021F40E94CC0AD7
:100968005E2F06C0E33011F4509502C0E03021F448
:10097800A52F0E94A70A06C00E94D00AEFEFEA93AB
:10098800AD85CEDEC3CFEF85E85FEF87ED85E85014
:10099800ED87D1C05D8520E0E0E0ED877AC0E32FE8
:1009A800AD85AE0FA93020F42D85E0E0ED8703C0BA
:1009B800E8E0E31B2E2F3A93A22F0E94F4094E2F52
:1009C800E985E630F1F41F931F5FEE85AF91AE170E
:1009D800B8F40E94D60AAE2FE32F0E94A70B0E94FC
:1009E800DD0AE32FA42F0E94A70BE095E1215E2BDF
:1009F8000E94BD0AFA93EA93A52F0E94460AE3CF04
:100A08002CC0E93011F450E003C0EA30A9F45FEFDC
:100A18000E94CC0AAE2FE32F0E949F0B5E2F1F93DC
:100A28001F5FEE85AF91AE1730F40E94D00A4A934B
:100A3800A0E076DEF4CF11C01F931F5FEE85AF9163
:100A4800AE1758F40E94E80AAE2FE32F0E949F0BBE
:100A5800EA934A93AD8564DEEFCFED85E03009F483
:100A680073C0AD85A83028F4ED85E21B5E2FE0E069
:100A780003C0532FED85E850ED8710E0EF85E85F60
:100A8800EF87E8E0E31B2E2F0889EA85FB85EE83D4
:100A9800FF83E52FF0E0E85CFD4F4491E985E630FF
:100AA800F1F41F931F5FEE85AF91AE17B8F40E9463
:100AB800D60AAE2FE22F0E949F0B0E94DD0AE22F7A
:100AC800A42F0E949F0BE095E1215E2B0E94BD0A96
:100AD800FA93EA93A52F0E94460AE3CF2CC0E93087
:100AE80011F450E003C0EA30A9F45FEF0E94CC0A89
:100AF800AE2FE22F0E94A70B5E2F1F931F5FEE857C
:100B0800AF91AE1730F40E94D00A4A93A0E008DEF5
:100B1800F4CF11C01F931F5FEE85AF91AE1758F445
:100B28000E94E80AAE2FE22F0E94A70BEA934A938D
:100B3800AD85F6DDEFCFE885AA85BB85F0E0EA0F45
:100B4800FB1FEA87FB87B9CE0E94ED0B61960895DB
:100B58000E94F50A24F0E0E0F0E00C94FD09A88179
:100B6800B981A038E0E0BE0724F0EFE7F0E00C948C
:100B7800FD09E881F9810C94FD090E94F50A24F029
:100B8800E0E0F0E00C94FD09A881B981A034E0E030
:100B9800BE0724F0EFE3F0E00C94FD09E881F98149
:100BA8000C94FD09AA93E981EA93E981EA93A0915B
:100BB800770278DD0C94FD09BA93AA9323970E94D3
:100BC800FC0A8F01002E012A19F4E0E0F0E05FC072
:100BD8000E94030B0F820E94030B0E820E94030BDC
:100BE8000886EB85A885EA1718F4E0E0F0E04FC026
:100BF800F8010F5F1F4F5491A885BB27EE27A50F5B
:100C0800BE1FEB85F0E0EA17FB0718F0E0E0F0E024
:100C18003EC0EE81E695E695E6954E2FEE81E770AB
:100C280009F04F5FEF81E030A1F0A985BA85EC9318
:100C3800A885EB85EA1BF0E0DF01EF81F0E00E9478
:100C4800B90BDF01E42FF0E00E94B90BE00FF11FB0
:100C58001EC09801E52FF0E00E0F1F1FA885AF5F9B
:100C6800A887A150EB85AE1760F4F9012F5F3F4FBD
:100C7800A491B0E0E42FF0E00E94B90B0E0F1F1F03
:100C8800EDCFF901E491A985BA85EC93F8010E94AA
:100C9800ED0B2C960895E0E0E0937902A0917A029A
:100CA800BB270E94080BF0E0AE0FBF1FE0917E0249
:100CB800F0E0AE0FBF1F61DFE0937A020895AA93B8
:100CC80021970E94FC0A309709F457C0AF81AA30D7
:100CD80009F44FC0EF81EA93DE0117966DDFAF018B
:100CE800309719F40E94ED0B02C3E0917D02AE81AA
:100CF800EA0F3E2FA0917902BB270E940F0B013803
:100D0800E0E01E0718F0032F1127C5DFE0917902F4
:100D1800EA93E0917A02EA93E885EA930E94080B45
:100D2800EA93E1E0EA935A934A93A7E034DDE0912D
:100D38007902AE81EA0FEA93E0917A02EA93E091B0
:100D48007D02EA930E94080B0E94140BE09179023D
:100D5800EA93A0917A020E94080BEA0FEA933A9369
:100D6800E0917E020E94140BE0E8F0E0E017F10742
:100D780021F491DF0E94ED0BBAC2009379020E9420
:100D8800ED0BB5C2BA93AA931A93A981BA81ED91D2
:100D9800A983BA831E2FE03019F0A12F90DFF5CF79
:100DA80018810C94440AAA93EA81EA93EA81EA93A7
:100DB800E0918002AA81EA2319F0E091770202C04B
:100DC800E0917802AE2F6EDCE881EE0FE883E03028
:100DD80011F4E1E0E883E8810C94440AAA93A9811C
:100DE800BB27B6DEE0937902A881BB27C6DEE09375
:100DF8007A020C94FD09AA932B970E94E60BAC8902
:100E0800BB27A6DEEC8BAA89BB27A2DEEA8BAB89BF
:100E1800BB27B3DEEB8BA989BB27AFDEE98BEA8959
:100E2800E0937902E989E0937A02E1E0E887E989C9
:100E3800AB89EA1771F51C89AA891A1731F41A9334
:100E4800EC89EA93A1E0AFDFC8C0AA891A1730F489
:100E5800EA89E11B0E2F41E050E006C0AA89E12F84
:100E6800EA1B0E2F4FEF5FEF3B89E0E0EE830E9415
:100E78001E0B38F41A933A933395AA8594DFEF83BF
:100E8800F6CFEF81E887140FE02F0150E03061F7CB
:100E9800A4C0EA89AC89EA1739F53B89A9893A17C8
:100EA80030F4E989E31B2E2FE1E0F0E006C0A989C0
:100EB800E32FEA1B2E2FEFEFFFEFED87FE871C894C
:100EC800E0E0EE830E941E0B30F41A9313950E9403
:100ED800260BEF83F7CFEF81E887ED853E0FE22FF2
:100EE8002150E03061F779C0E0E0EE830E941E0BEC
:100EF80008F073C01C893B89E1E02E2F0E2FAA89C8
:100F0800BB27EC89F0E0AE1BBF0BAD0155232AF4DB
:100F18000FEFFA010E949B0BAF01FA01EE0FFF1FC2
:100F2800EF87F88BA989BB27EB89F0E0AE1BBF0BD5
:100F3800AD87BE87AE85AA233AF42FEFED85FE85EF
:100F48000E949B0BED87FE87ED85FE85EE0FFF1F48
:100F5800EB87FC871A933A93A1E025DFE887E0E066
:100F6800E987EA87AD85BE854A175B07BCF0100F95
:100F7800EB85FC850E942A0BA985BA854A175B0771
:100F88002CF4320FAF85B8890E94310B1A930E9456
:100F9800260BE887EA89E11751F718C0320FEF8569
:100FA800F8890E942A0BED85FE85A985BA85EA177E
:100FB800FB072CF4100FAB85BC850E94310B1A93EC
:100FC8000E94260BE887E989E31741F7EB89EF5F71
:100FD800EB8BE989EF5FE98B89CF0E94ED0B659672
:100FE8000895BA93AA9323970E94E60BED85E887A4
:100FF800E0917F02EF83E0917702EE83AA89BB2715
:10100800EF850E940F0BA989BB27E8890E94380B3E
:10101800E8890E943F0B71F0E885E078F1F4AD852E
:10102800BE85EAE5F0E00E94470B1CF00E94500BD9
:101038000CF413C0332312F00E94550BAF81A23079
:1010480020F02230E0E03E070CF407C00E94590B64
:1010580021F40A93A22FA150A5DDE885E878E838A5
:1010680091F0E885E078C9F4AD85BE85A25FBE4FF2
:101078000E94620B3CF0AD85BE85A25FBE4F0E9408
:10108800670B0CF40AC00E946C0B38F00E94730BBB
:1010980021F40A93A42FAF5F85DDAA89BB27EF85CA
:1010A800F0E0AE1BBF0B8D0111230AF445C0E885A3
:1010B800E278E23891F0E885E07811F5AD85BE85F3
:1010C800A65ABF4F0E94620B3CF0AD85BE85A65A5A
:1010D800BF4F0E94670B0CF413C0332312F00E9419
:1010E800550BAF81A23020F02230E0E03E070CF42F
:1010F80007C00E94590B21F40A93A22FA15052DD78
:10110800E885E478E43871F0E885E078A9F4AD85FD
:10111800BE85EEE0F1E00E94470B1CF00E94500BE8
:101128000CF40AC00E946C0B38F00E94730B21F477
:101138000A93A42FAF5F36DDAA89BB27E8890E94EE
:101148000F0BA989BB27EF850E94380BEF850E94FA
:101158003F0B81F0E885E078F1F4EB85FC85AD85FF
:10116800BE85AE17BF072CF0E985FA85EA17FB079D
:101178000CF411C033237AF00E94550BAF81A230D2
:1011880050F0E02FEE5F0E947C0B29F4E02FEF5F18
:10119800EA93A22F07DDE885E878E83871F0E8855A
:1011A800E078C1F4AD85BE85E8E6F1E00E94470B22
:1011B8001CF00E94500B0CF40DC00E946C0B50F0F8
:1011C800E02FEE5F0E94840B29F4E02FEF5FEA9393
:1011D800A42FE8DCAA89BB27E889F0E0AE1BBF0B87
:1011E8008D0111230AF450C0E885E278E23871F0E5
:1011F800E885E07809F5AD85BE85E4EBF0E00E946E
:10120800470B1CF00E94500B0CF416C03323A2F0BD
:101218000E94550BAF81A23020F00230E0E01E079B
:101228000CF40AC0E02FE2500E947C0B29F4E02F56
:10123800E150EA93A22FB6DCE885E478E43891F02F
:10124800E885E07809F5AD85BE85AC54BF4F0E94AE
:10125800620B3CF0AD85BE85AC54BF4F0E94670B56
:101268000CF412C00E946C0B20F00230E0E01E0764
:101278000CF40AC0E02FE2500E94840B29F4E02FFE
:10128800E150EA93A42F8EDC0E94ED0B639608953B
:10129800AA930E94E80BAF81BB27ED81F0E0AE1B5B
:1012A800BF0B56DC1E2FAF81BB27ED81F0E0AE0FE0
:1012B800BF1F4EDC0E2FAE81BB27EC81F0E0AE1BCA
:1012C800BF0B5BDC3E2FAE81BB27EC81F0E0AE0F9D
:1012D800BF1F53DC2E2F1A933A930A93A32F8BDD4B
:1012E8001A932A930A93A22F86DD0E94EF0B289661
:1012F8000895AA930E94E60BA985A03818F4A8853A
:10130800A03408F04FC050917F02E52F5150E030D3
:1013180009F448C0EF81E03009F444C0EF81E1509E
:10132800EF83EF5F0E2FF0E0A5E0B0E0AE1BBF0B40
:10133800FD010E94AF0B0E94B40B9F0110E0AE812B
:10134800A03459F40E948C0B1A93A02FA1DF0E949D
:101358008C0B0A93A12F9CDF0FC00E948C0B1A9351
:101368000A93EA85F0E0FA93EA93E0E0F0E0FA9372
:10137800EA93A0E0B0E035DE1F5F33231AF4E12FD3
:10138800F0E008C00150A12FBB27E02FF0E0AE1B12
:10139800BF0BFD01EE0FFF1F31962E0F3F1F0117E8
:1013A80070F6B3CF0E94ED0B2A960895AA93EA81AE
:1013B800EA93EA81EA93EA81EA93AFE89ADF60C0A8
:1013C800BA93AA93B981A881109631F0FC81EB8178
:1013D8006A8161931197E9F7EB81FC81259608955D
:1013E800AA93E881F0E0E85CFD4FA491E9810E94AE
:1013F8009F0B22960895AA931A93E981E73011F07A
:10140800EA3019F41091770209C0E93019F4109103
:10141800780204C0E830A1F410918702E0917802C4
:10142800E03049F0103019F0EFEF188129C0EA8157
:10143800E095188125C0103019F4E0E0188120C02B
:10144800EA8118811DC0BA93AA93EA81E13021F498
:10145800E881F981E49114C0E23029F4A881B981C6
:101468000E94C50B0DC0E33041F4A881B981E09119
:101478009002F0919102099503C0A881B981EC917D
:1014880023960895AA93EB81E03029F4E881A98195
:10149800BA81EC9314C0E23031F4E881A981BA81B1
:1014A8000E94D10B0CC0E33051F4E981FA81FA9320
:1014B800EA93AA81E0919202F09193020995249609
:1014C8000895A0EDB7E00E94910B0C943003EA93C5
:1014D800A0E20C94FF06EA93A5E00C94FF06EA93B9
:1014E800AAE00C94FF06EEE1F0E04E165F060895C0
:1014F8000E943003E42DEE0F0895E42DEE0FACE3C7
:10150800AE1BAA93A2E00E94DA09A6E4B0E00C940C
:10151800910BE42DEE0FEE5FEA93A2E00E94DA0948
:10152800A6E4B0E00C94910BC198EFEFEABBE88118
:10153800EBBB0E944C020C945002E695E695E695AA
:10154800AE2F0C948B020E94AF020C949A02EA0F01
:10155800FB1FEE83FF830895EC85EA93EF81F885FE
:101568003196EF83F8873197FA93EA93A0E00C94C9
:10157800460AEC85EA93EF81F8853196EF83F88780
:101588003197089566277727DF01CB010C94270A46
:101598005A93AA850C94FF090A930395E889EA935C
:1015A8005A9308950A930395A8890E94C102E423D7
:1015B80008955E2FEC85EA93AF81B885882799272F
:1015C8000E94270A1E2E08950A930395E889EA9334
:1015D800EE85EA93E985FA853196E987FA873197A6
:1015E800D1CFBA93AA93A881B9810E94E20B08953A
:1015F8000E94E60BE0917B02F0917C020895F801CD
:101608000F5F1F4F04900895E0917B02F0917C02D8
:101618003196E4910895F0E0EA0FFB1F8F010895D9
:10162800EA93E0E0EA93E0E0F0E0FA93EA93A9E0D5
:101638000C94CF03AE81AF5FAE83A150E0917F02DF
:10164800AE1708953A93AA850C94D706A985BA854A
:10165800EA0FFB1FE987FA870895E985FA85EA1BEF
:10166800FB0BE987FA870895F0E0AE1BBF0B9D01DD
:10167800A989BB270895F0E0EA0FFB1FAF01E885B1
:10168800E178E1380895EA1BFB0B0F01DF01EB85D8
:10169800FC85AE17BF070895E985FA85E015F105C1
:1016A80008950A93A22F0C94D6050A93A22FA2504C
:1016B8000E947A03AE2FEE81EA170895EB85FC8528
:1016C800AE17BF070895E985FA85EA17FB0708955D
:1016D8000A93A42F0E94D605AF81A23008950A93D9
:1016E800A42FAE5F0E947A03AE2FEE81EA17089509
:1016F800EA93A22F0E947A03AE2FEE81EA1708958B
:10170800EA93A42F0E947A03AE2FEE81EA17089578
:10171800E985EA93E985EA930895109639F080ED12
:1017280097E00197F1F7A8951197C9F70895F195F2
:10173800E195F0400895EE230E2EEA2F19F0EE0FF2
:101748000A94E9F70895EE230E2EEA2F19F0E6958C
:101758000A94E9F70895EE0FFF1FEE0FFF1F089593
:10176800F595E795F595E7950895FA9FF02DEB9F88
:10177800F00DEA9FE02DF10D0895ED91FC91119780
:101788000895E199FECFFF93FFB7F894AEBBBFBBB6
:10179800E09AEDB3FFBFFF910895E19B02C0A895C1
:1017A800FCCF9FB7F894AEBBBFBBE09A8DB3E817E8
:1017B80019F0EDBBE29AE19A9FBF089500240A163A
:1017C8000B0608955A934A933A932A931A930A93C5
:1017D80008955D814C813B812A8119810881089592
:00000001FF
