:100000000C9447000C9400000C9400000C94000029
:100010000C9400000C9400000C9400000C94000060
:100020000C9400000C9400000C9400000C94000050
:100030000C9400000C9400000C9400000C94000040
:100040000C9400000C9400000C9400000C94000030
:100050000C94000054696D653A2000446174653A5F
:1000600020003230000080C001002D4E414E00497A
:100070004E460000070060025400070067025B0064
:1000800002006E0266000100740268000000F8942D
:10009000EE27ECBBF1E0FBBFEBBFE5BF8DE0A2E0DC
:1000A000BB27ED938A95E9F780E098E0A0E6ED9311
:1000B0000197E9F7E4E7F0E085919591009761F009
:1000C000A591B59105901590BF01F00105900D9295
:1000D0000197E1F7FB01F0CFEFE5EDBFE8E0EEBF00
:1000E000C0E6D2E00C947400EFEFEABBE0E0EBBBBB
:1000F000E7BBE8BBE4BBE5BBE1BBE2BB0E9445025A
:10010000E0E0EA93EA93A0E04AD0A4E10DD1C3D0A5
:10011000E5E0F0E0FA93EA93E4E0F0E0FA93EA93A2
:10012000A7E0B0E055D0E6E0F0E0FA93EA93E9E02A
:10013000F0E0FA93EA93E8E0F0E0FA93EA93ABE0B8
:10014000B0E05FD0E0E0EA93A0E096D0A0E6B2E0B5
:10015000C9D0E52D0E94FE01E42D0E94FE01E72D8D
:100160000E940A02E0E0EA93A1E086D0A7E6B2E0AE
:10017000B9D0E92D0E940A02AFE29AD0E82D0E9480
:100180000A02AFE295D0A2E6B0E0BBD0EB2D0E9410
:100190000A02A0E9B1E00E949602B9CFFFCFAA936C
:1001A000EA81E370EA83E981E03019F0EA81E061F5
:1001B000EA83E881E03019F0EA81E068EA830E948E
:1001C0001302A7E00E947E02AA810E941802AAC020
:1001D000BA93AA930E941302A0E00E9418020E9400
:1001E0001C020E9424020E942B020E943102AE2FA8
:1001F0000E94F101AC81BD81EC930E9459022696C8
:100200000895BA93AA930E941302A3E00E941802D1
:100210000E941C02AE81BF81EC930E942B02AC8134
:10022000BD81EC930E942B020E9431020E942402A5
:100230000E94590228960895AA93EBB3EF70AE2F4F
:10024000E881E07FEA2BEBBB8DE08A95F1F7DA9A43
:100250008DE08A95F1F7DA988DE08A95F1F791C0F3
:10026000AA93A881E9DFE881E295E883A881E4DF29
:1002700085E88A95F1F785C0AA93E881F0E0E25914
:10028000FD4FE081A981AE0FEBDFA980E881E0930B
:10029000720222960895A2E00E943702ACE0E0DFED
:1002A000A1E00E943702E0E0E0937202AE2E0895D2
:1002B000AA93A881AA3021F0E0917302AE1660F0F3
:1002C000E0E0EA93A0917202AF5FA0937202D4DFE4
:1002D000A881AA3009F455C0A394D89AA881C0DF98
:1002E000D8984FC0BA93AA931A93A981BA81ED9175
:1002F000A983BA831E2FE03019F0A12FD9DFF5CFE3
:1003000010C0BA93AA931A93E981FA813196E983CE
:10031000FA833197E4911E2FE03019F0A12FC8DF46
:10032000F3CF188123960895AA93EAB3E06FEABB4E
:10033000D29AD09AD19ADA98D898D998E881E0934D
:100340007302E058E0937002E881E054E093710298
:10035000A4E1B0E00E9496020E943D020E943D028C
:100360000E943D02A0E268DF88EC90E00197F1F77F
:10037000A8E276DFA4E074DFA5E872DFA6E070DF14
:100380008ADF21960895BA93AA93A991B991E99128
:10039000F99130962AF4E095F09531966DE26D93DF
:1003A000E89480E197E20DD088EE93E00AD084E6ED
:1003B000992707D08AE005D06E2F10D066276C935E
:1003C00008956627E817F90720F06395E81BF90BF5
:1003D000C9F7662311F416F008956894605D6D9373
:1003E0000895AA93E881E295EF70AE2FAA0FAA0FA5
:1003F000EA0FEE0FA991AF70EA0F0895F0E0FA93BB
:10040000EA93D6010E94C301D6010E947201AAE3B9
:100410000C945801F0E0FA93EA93D6010E94C301CC
:10042000D6010C9472010E944A02A0ED0C947E0247
:100430000E947E020C9459020E944A02A1ED0E9481
:100440007E02A1E00C946302AE2F0E94F101A8810C
:10045000B981EC930895A1E00E946302AE2F0C9441
:10046000F101AA81BB81EC93A0E00C9463020E948D
:100470003001A3E0B0E00C949602A0E30E941C01BE
:1004800088EC90E00197F1F70895A898A998A09AB0
:10049000A19815C0A198A098EE270000999B0895F7
:1004A000989B089504D0A19A02D0A09AE1E06DE053
:1004B00007C0A19AA09A03D0A098F9DFA1986BE198
:1004C0006A95F1F7089578E0A098F1DF989BFECF48
:1004D000EEDF889499990894A09AF1DFEE1F7A953F
:1004E00099F77A2F772311F4A19801C0A19ADFDF41
:1004F000A098E5DFA09ADBDFA198D9CF78E0AA0F1A
:1005000010F4A19801C0A19ADADFA098D0DF989BDF
:10051000FECFCDDFA09A7A9591F7A198C8DFA09879
:10052000CEDFE1E09999EE27A09AC1CF109639F07D
:1005300080ED97E00197F1F7A8951197C9F7089515
:00000001FF
