:020000020000FC
:020000000EC030
:10001C0056C008E00EBF0FE50DBF0FEF04BB01BBD0
:10002C000BBB00E00ABB0FEF07BB09B3003049F074
:10003C0040E050E060E070E080E0A1E0BAE0C0E0B9
:10004C0008C049E059E069E079E0AFEFBFEFC9E0E3
:10005C0000C090E09FBD9CE09EBD9AE79BBD92E1E5
:10006C009ABD92E199BF78940EE002BB072F0E94D3
:10007C00760005BB0E949E000DE002BB062F0E947D
:10008C00760005BB0E949E000BE002BB052F0E9470
:10009C00760005BB0E949E0007E002BB042F0E9465
:1000AC00760005BB0E949E0009B3003021F0A1E050
:1000BC00BAE0C0E0D9CFAFEFBFEFC9E0D5CF4A0F60
:1000CC004B1769F44C2F5A0F5B1749F45C2F6A0FCE
:1000DC006B1729F46C2F7A0F7B1709F47C2F18956A
:1000EC00003011F40FE30895013011F406E0089587
:1000FC00023011F40BE50895033011F40FE4089568
:10010C00043011F406E60895053011F40DE6089557
:10011C00063011F40DE70895073011F407E0089547
:10012C00083011F40FE70895093009F40FE608952B
:10013C001FEF21E031E03A95F1F72A95D9F71A959E
:04014C00C1F708955A
:00000001FF
