:100000000C944C000C9400000C9400000C94000024
:100010000C9400000C9400000C9400000C94000060
:100020000C9400000C9400000C9400000C94000050
:100030000C9400000C9400000C9400000C94000040
:100040000C9400000C9400000C9400000C94000030
:100050000C940000000043616C63756C61746F72F6
:100060000050726F6A656374000080C001002D4EFD
:10007000414E00494E4600000200060054000B00AD
:100080006002560008006B026100020084026A00F0
:10009000010088026C000000F894EE27ECBBF1E050
:1000A000FBBFEBBFE5BF8DE0A2E0BB27ED938A95D8
:1000B000E9F780E098E0A0E6ED930197E9F7E8E73B
:1000C000F0E085919591009761F0A591B59105902B
:1000D0001590BF01F00105900D920197E1F7FB012A
:1000E000F0CFEFE5EDBFE8E0EEBFC0E6D2E00C9464
:1000F000CE001A931FEF909A91980E945A03849B06
:1001000002C017E00AC0859B02C018E006C0869BAB
:1001100002C019E002C087991AE09098919A0E9453
:100120005A03849B02C014E00AC0859B02C015E0FC
:1001300006C0869B02C016E002C087991BE090981B
:100140009198929A9398A5E0B0E00E94D503849B81
:1001500002C011E00AC0859B02C012E006C0869B67
:1001600002C013E002C087991DE090989198929880
:10017000939AA5E0B0E00E94D503849B02C01FE0E3
:100180000AC0859B02C010E006C0869B02C01EE02C
:1001900002C087991CE0E12F19910895E0E0EABBC5
:1001A000EBBBE7BBE8BBE4BBE5BBE1BBE2BBEFEF0E
:1001B000E4BBEFE0E1BBE0E0E5BBA0E12BD1F8D090
:1001C000E3E0EA93A0E0E7D0A0E6B2E012D1E5E0F8
:1001D000EA93A1E0E0D0ABE6B2E00BD1A0EDB7E04E
:1001E0000E94D503E5D085DF4E2EEFEFE41509F42C
:1001F000B0C07FDFEF3FE9F7A4E1B0E00E94D50394
:10020000EAE0E41531F4A5E20E946003E5E25E2E27
:10021000A0C0EBE0E41531F4AAE20E946003EAE238
:100220005E2E97C0EDE0E41531F4ADE20E9460036C
:10023000EDE25E2E8EC0ECE0E41531F4ABE20E94FC
:100240006003EBE25E2E85C0EEE0E415E9F5ADE378
:10025000BBD0E5E2E51529F40E9466030E94230560
:1002600017C0EAE2E51529F40E9466030E94D5044E
:100270000FC0EDE2E51529F40E9466030E947703A2
:1002800007C0EBE2E51561F40E9466030E94850455
:10029000E0937B02F0937C0260937D0270937E0278
:1002A000E0917B02F0917C0260917D0270917E0270
:1002B0000E94B905E2E0EA93AFE7B2E00E9438029B
:1002C000AFE7B2E096D045C0EFE0E415D9F470D0C6
:1002D000E0E0EA93A0E05FD0EBE7F2E00E947C036D
:1002E000E7E7F2E00E947C03E0E0E0937302E09332
:1002F0007402E0937502E093760255246624772415
:1003000057D027C0A42DA05D5FD00E948303FF9328
:10031000EF93DF010E949A05A0E0B0E080E291E453
:100320000E94D504AF91BF910E94A0050E94830353
:10033000FF93EF93DF010E949A05DF01CB01E42DCB
:10034000F0E00E948B030E948504AF91BF910E9450
:10035000A00549CFFFCFAA93E5B3EF70AE2FE88198
:10036000E07FEA2BE5BB8DE08A95F1F7AA9A8DE054
:100370008A95F1F7AA988DE08A95F1F777C0AA934C
:10038000A881E9DFE881E295E883A881E4DF85E8D8
:100390008A95F1F76BC0AA93E881F0E0EC57FD4F26
:1003A000E081A981AE0FEBDF9980888022960895C5
:1003B000A2E00E949003ACE0E2DFA1E00E94900383
:1003C000E0E08E2E9E2E0895AA93A881AA3011F007
:1003D0009B1448F0E0E0EA938394A82DDCDFA88129
:1003E000AA3009F443C09394A89AA881C8DFA898BA
:1003F0003DC0BA93AA931A93A981BA81ED91A983BA
:10040000BA831E2FE03019F0A12FDEDFF5CF18815F
:1004100023960895AA93E4B3E06FE4BBA29AA09A4E
:10042000A19AAA98A898A998B880E881E058E09382
:100430008602E881E054E0938702A4E1B0E00E94E4
:10044000D5030E9496030E9496030E949603A0E2A1
:1004500082DF88EC90E00197F1F7A8E290DFA4E05A
:100460008EDFA5E88CDFA6E08ADFA2DF2196089563
:10047000BA93AA932497E0E0E883E983EA83EFE361
:10048000EB831A930A93EB85FC85EF3FAFEFFA07F6
:1004900039F40E949E03AEE6B0E00E944D03B1C065
:1004A000EF3FAFE7FA0739F40E949E03AFE6B0E0F2
:1004B0000E944D03A6C0AC85AA2362F4E985FA85A3
:1004C0006B857C850E94DF030E94A3030E94A80322
:1004D000EDE2EC93A885A73010F0E6E0E8871885F8
:1004E000E12F1150E03039F00E94AF030E94B403B5
:1004F0000E94BB03F5CF0E94C0030E9485040E94A6
:10050000A30310E0E0E0F0E060E87FE30E94BB03BB
:100510000E94C0030E94680588F00E94AF030E94F9
:10052000C9030E94BB031F5F173238F00E949E036D
:10053000A3E7B0E00E944D0364C0EACF103029F475
:100540000E94A803E0E3EC932FC0E12F1150E030AC
:1005500059F10E94AF030E94B403A0E0B0E080E034
:100560009FE30E948504DF01CB010E9436030E94B5
:10057000BB030E94C0030E9423050E9412040E2F99
:100580000E94A803E02FE05DEC93E02FF0E00E94D2
:10059000AF030E948B030E94D5040E94D0030E94E7
:1005A00077030E94A303D1CFE885E03031F10E94A8
:1005B000A803EEE2EC93E885E150E887EF5FE9F00D
:1005C0000E94D0030E94C9030E94A303E985FA8513
:1005D0006B857C850E9412040E2F0E94A803E02FD9
:1005E000E05DEC93E02FF0E00E94D0030E948B03CB
:1005F0000E9477030E94A303DECFAE81BF81E0E0BB
:10060000EC93198108812D9608950E94BE057B8187
:100610006A81F981E88177FB770F67FD7160972F19
:100620009E5781F078F0983190F4AA27BB2788274D
:1006300008948795B795A7959A95D1F7EA23FB2358
:10064000682305C0E8947727EE27FF2766276F7792
:10065000769508F4606877F9A991B9918991999193
:10066000EA17FB076807790797FB08950E94BE0504
:100670000E94AA050E9405030E94AF0519F40E947A
:10068000A50509C0E6F70E94A505A0E0B0E080E856
:100690009FE30E947E0424960895BA93AA93E99159
:1006A000F991A991B991CD0105900D920020E1F742
:1006B000FC01089592989398A5E0B0E00C94D503BE
:1006C0000E94E401F30131963F010895E091770221
:1006D000F09178026091790270917A02A091730290
:1006E000B0917402809175029091760208950E94F3
:1006F000C3050E947E040895A0E0B0E080E090E091
:100700000E94B4050895F301A3E7B2E00E949005AA
:10071000EA0FFB1F08950E9495050E944B0408955F
:100720000E94BF01A3E0B0E00C94D503A0E30E94B7
:10073000AB0188EC90E00197F1F70895EE81FF811D
:10074000FA93EA930895E987FA876B877C8708957F
:10075000AE81BF811196AE83BF8311970895AA81A0
:10076000BB818C819D810895EDECFCEC6CEC7DE30C
:100770000E94D5040895EA83FB836C837D830895EA
:10078000EA81FB816C817D81A985BA858B859C85F9
:100790000895E0E0F0E060E271E40E94D50408957D
:1007A000A985BA858B859C850895109639F080EDD2
:1007B00097E00197F1F7A8951197C9F70895309739
:1007C0006040704009F070580895552342F4503845
:1007D00011F4E0FF04C03196691F791F6BF050E8F7
:1007E000572711F45F93CFC05F3F31F0660F000CC5
:1007F00057956795752F08955F9300200AF0CFC035
:10080000C8C050E8192E1522880F991F9527550F3B
:10081000879550E8072E0522660F771F7527550F1D
:1008200067950895689401C0E8945F93F2DF70388B
:1008300018F07F3F08F4A7C056E1571BAAF4519562
:1008400058300EF4593030F0EFEFFFEF6FEF7FE7E5
:1008500077F91AC077275523B9F0EE0FFF1F661FEF
:10086000771F5A95D1F710C07727583028F0EF2F0F
:10087000F62F672F5850F9CF552331F076956795AD
:10088000F795E7955A95D1F700200AF441D15F9189
:100890000895689401C0E894309760407040B1F0CA
:1008A000002426F0772312F4009432D1172E7EE133
:1008B000112032F07A95EE0FFF1F661F111CF9CF41
:1008C000EF2FF62F612D5F938ADF5F9108954F938D
:1008D000AF01FD01DA01AB01BC01CA01402D012CC1
:1008E000142E4F910895EA0FFB1F681F0895E0959D
:1008F000F0956095EF5FFF4F6F4F08955F9381DF35
:10090000903871F150E8152604C05F937ADF903873
:1009100039F1703821F1572F591B2BF112F4D7DF21
:10092000FACF583118F0AA27BB278827583028F06B
:10093000AB2FB82F88275850F9CF552329F086952B
:10094000B795A7955A95D9F7502D512572F0CBDF61
:1009500038F46795F795E795739513F420C0B7DFE2
:100960003EDF5F910895D8F7FBCFEA1BFB0B680BC6
:1009700051F010F40094BBDF662392F3EE0FFF1FDB
:10098000661F7A95CBF7EE27FF27662777275F91BB
:100990000895EFEFFFEF6FE77FEF5F910895EFEFBF
:1009A000FFEF6FE77FE75F9108955F932ADF70386D
:1009B00051F3903841F301240894791F23F41CF378
:1009C00000203AF3ECCF0F921F932F933F934F9356
:1009D000112722279927689FA0018F9F302D410D55
:1009E000591F6B9F300D411D591F8E9F27D0BF9FF0
:1009F00025D06A9F23D0BE9F1DD0AF9F1BD0AE9F36
:100A0000110D291F391F491F591FE32FF42F652F7F
:100A1000522F4F913F912F911F910F9066232AF0F3
:100A2000550FEE1FFF1F661F02C073954BF2CDDE00
:100A30005F910895100D211D391F02C0200D311D39
:100A4000491F591F08955F93DCDE703821F411208F
:100A50000AF49FCFA4CF903809F495CF01240894CD
:100A6000970B1BF4D4F30020F3CF792F1F932F9310
:100A70003F934F93112411272227332744275527CB
:100A800090E2AE17BF078607410730F0AE1BBF0BE1
:100A9000860B410B089401C08894551F221F331FF9
:100AA000111CAA1FBB1F881F441F9A9551F7F901FB
:100AB000612D4F913F912F911F91662332F0550F79
:100AC000EE1FFF1F661F7A9543F27FDE5F91089548
:100AD00099239AF0772342F0971748F029F4AE173C
:100AE000BF07860720F031F0989488940895989471
:100AF000089408951894889408957723C2F7971757
:100B000098F3A9F7EA17FB07680788F399F3ECCF86
:100B1000F09560957095E195FF4F6F4F7F4F089569
:100B2000EE0FFF1FEE0FFF1F08956F2F660F660B6E
:100B3000762F0895ED91FD916D917C911397089515
:100B4000ED93FD936D937C930895E881F9816A811B
:100B50007B810895A881B9818A819B810895E8836A
:100B6000F9836A837B830895A083B183828393830F
:100B700008957A936A93FA93EA9308959A938A93DD
:100B8000BA93AA930895182E862F612D192E972FA8
:100B9000712D1B2EBF2FF12D1A2EAE2FE12D089592
:00000001FF
