:0E0000000C9448000C9400000C9400000C942A
:10000E0000000C9400000C9400000C9400000C9462
:10001E0000000C9400000C9400000C9400000C9452
:10002E0000000C9400000C9400000C9400000C9442
:10003E0000000C9400000C9400000C9400000C9432
:10004E0000000C9400004C4D33352053656E736FD9
:10005E00720054656D70203A000001002D4E414E25
:10006E0000494E46000080C00C006002540007009C
:10007E006C026000010073026800020077027400D7
:10008E000000F894EE27ECBBF1E0FBBFEBBFE5BF41
:10009E008DE0A2E0BB27ED938A95E9F780E098E02A
:1000AE00A0E6ED930197E9F7E6E7F0E085919591EB
:1000BE00009761F0A591B59105901590BF01F001E3
:1000CE0005900D920197E1F7FB01F0CFEFE5EDBF43
:1000DE00E8E0EEBFC0E6D2E00C948400AA93E8817B
:1000EE00E064E7B98BE18A95F1F7369A349BFECF3F
:1000FE00349AE4B1F5B10C944C022397E0E0EABBDC
:10010E00E1E0EBBBE0E0E8BBE4BBE5BBE1BBE2BB9F
:10011E00E3BFE2BFECBFEFBDEEBDEDBDECBDE7BD95
:10012E00E6BDEBBDEABDE9BDE8BDE2BDE5BDE4BDA2
:10013E00E3BDE9BFE5BFE4BFEAB9E0E8E8B9389A44
:10014E00E5E8E6B9E0E0E0BFEDB9E6BFA0E10E9468
:10015E002002E3E0EA93A0E00E94E101A0E6B2E013
:10016E000E940F02E2E00E94A302ACE6B2E00E94FF
:10017E000F02A0E0B3DF0E94A702AEE3B9E78CE95D
:10018E0090E40E94F7030E9436038F01D801EAE043
:10019E00F0E00E94CE040E94A7020E94F004E2E06A
:1001AE00EA93DE0115960E94F400E9E00E94A30294
:1001BE00DE010E940F02EDE00E94A302AFED0E944D
:1001CE00FA01EEE00E94A302A3E40E94FA01A4E663
:1001DE00B0E00E94F702CDCFFFCFBA93AA93249737
:1001EE00E0E0E883E983EA83EFE3EB831A930A9373
:1001FE00EB85FC85EF3FAFEFFA0739F40E94AD02B5
:10020E00AAE6B0E00E949602B1C0EF3FAFE7FA0750
:10021E0039F40E94AD02ABE6B0E00E949602A6C091
:10022E00AC85AA2362F4E985FA856B857C850E94EC
:10023E0001030E94B2020E94B702EDE2EC93A88580
:10024E00A73010F0E6E0E8871885E12F1150E03076
:10025E0039F00E94BE020E94C3020E94CA02F5CF6C
:10026E000E94CF020E94A7030E94B20210E0E0E0BB
:10027E00F0E060E87FE30E94CA020E94CF020E9473
:10028E008A0488F00E94BE020E94D8020E94CA020E
:10029E001F5F173238F00E94AD02AFE6B0E00E9449
:1002AE00960264C0EACF103029F40E94B702E0E350
:1002BE00EC932FC0E12F1150E03059F10E94BE0295
:1002CE000E94C302A0E0B0E080E09FE30E94A7037B
:1002DE00DF01CB010E947F020E94CA020E94CF0260
:1002EE000E9445040E9434030E2F0E94B702E02F95
:1002FE00E05DEC93E02FF0E00E94BE020E94B60497
:10030E000E946D030E94F7030E94DF020E94E40226
:10031E00D1CFE885E03031F10E94B702EEE2EC93E6
:10032E00E885E150E887EF5FE9F00E94DF020E9466
:10033E00D8020E94B202E985FA856B857C850E94FF
:10034E0034030E2F0E94B702E02FE05DEC93E02FF6
:10035E00F0E00E94DF020E94B6040E946D030E942C
:10036E00E402DECFAE81BF81E0E0EC93198108811B
:10037E002D960895AA93E5B3EF70AE2FE881E07F36
:10038E00EA2BE5BB8DE08A95F1F7AA9A8DE08A9566
:10039E00F1F7AA988DE08A95F1F777C0AA93A88114
:1003AE00E9DFE881E295E883A881E4DF85E88A95B4
:1003BE00F1F76BC0AA93E881F0E0E958FD4FE081B8
:1003CE00A981AE0FEBDF5980488022960895A2E0F6
:1003DE000E94E902ACE0E2DFA1E00E94E902E0E067
:1003EE004E2E5E2E0895AA93A881AA3011F05714AE
:1003FE0048F0E0E0EA934394A42DDCDFA881AA3014
:10040E0009F443C05394A89AA881C8DFA8983DC0A8
:10041E00BA93AA931A93A981BA81ED91A983BA834B
:10042E001E2FE03019F0A12FDEDFF5CF18812396B5
:10043E000895AA93E4B3E06FE4BBA29AA09AA19A9E
:10044E00AA98A898A9987880E881E058E093790254
:10045E00E881E054E0937A02A4E1B0E00E94F70252
:10046E000E94EF020E94EF020E94EF02A0E282DFE2
:10047E0088EC90E00197F1F7A8E290DFA4E08EDF20
:10048E00A5E88CDFA6E08ADFA2DF219608950E9400
:10049E00F5047B816A81F981E88177FB770F67FD2F
:1004AE007160972F9E5781F078F0983190F4AA27BB
:1004BE00BB27882708948795B795A7959A95D1F766
:1004CE00EA23FB23682305C0E8947727EE27FF274E
:1004DE0066276F77769508F4606877F9A991B991D8
:1004EE0089919991EA17FB076807790797FB089599
:1004FE000E94F5040E94E6040E944E020E94EB0444
:10050E0019F40E94E10409C0E6F70E94E104A0E09C
:10051E00B0E080E89FE30E94A00324960895BA936A
:10052E00AA93E991F991A991B991CD0105900D92F6
:10053E000020E1F7FC010895EA93A1E00C94E1019B
:10054E008F010E94B6040E946D030895EE81FF8113
:10055E00FA93EA930895E987FA876B877C87089563
:10056E00AE81BF811196AE83BF8311970895AA8184
:10057E00BB818C819D810895EDECFCEC6CEC7DE3F0
:10058E000E94F7030895EA83FB836C837D830895AD
:10059E00EA81FB816C817D81A985BA858B859C85DD
:1005AE000895E0E0F0E060E271E40E94F703089540
:1005BE00A985BA858B859C8508950E94FA040E94B0
:1005CE00A003C9CF0E94D501A3E0B0E00C94F702BE
:1005DE00A0E30E94C10188EC90E00197F1F7089525
:1005EE00109639F080ED97E00197F1F7A8951197E5
:1005FE00C9F7089530976040704009F0705808951B
:10060E00552342F4503811F4E0FF04C03196691FAF
:10061E00791F6BF050E8572711F45F93CFC05F3FFF
:10062E0031F0660F000C57956795752F08955F93FF
:10063E0000200AF0CFC0C8C050E8192E1522880F2E
:10064E00991F9527550F879550E8072E0522660F9F
:10065E00771F7527550F67950895689401C0E89424
:10066E005F93F2DF703818F07F3F08F4A7C056E1B1
:10067E00571BAAF4519558300EF4593030F0EFEF65
:10068E00FFEF6FEF7FE777F91AC077275523B9F0A1
:10069E00EE0FFF1F661F771F5A95D1F710C07727F1
:1006AE00583028F0EF2FF62F672F5850F9CF5523DB
:1006BE0031F076956795F795E7955A95D1F7002025
:1006CE000AF445D15F910895689401C0E89430977B
:1006DE0060407040B1F0002426F0772312F40094AD
:1006EE0036D1172E7EE1112032F07A95EE0FFF1FD4
:1006FE00661F111CF9CFEF2FF62F612D5F938ADF46
:10070E005F9108954F93AF01FD01DA01AB01BC017A
:10071E00CA01402D012C142E4F910895EA0FFB1F94
:10072E00681F0895E095F0956095EF5FFF4F6F4F4E
:10073E0008955F9381DF903871F150E8152604C05B
:10074E005F937ADF903839F1703821F1572F591BAA
:10075E002BF112F4D7DFFACF583118F0AA27BB27A6
:10076E008827583028F0AB2FB82F88275850F9CF4C
:10077E00552329F08695B795A7955A95D9F7502DFB
:10078E00512572F0CBDF38F46795F795E7957395A1
:10079E0013F420C0B7DF3EDF5F910895D8F7FBCF8B
:1007AE00EA1BFB0B680B51F010F40094BBDF6623C1
:1007BE0092F3EE0FFF1F661F7A95CBF7EE27FF27FA
:1007CE00662777275F910895EFEFFFEF6FE77FEFD3
:1007DE005F910895EFEFFFEF6FE77FE75F91089569
:1007EE005F932ADF703851F3903841F30124089457
:1007FE00791F23F41CF300203AF3ECCF0F921F93D2
:10080E002F933F934F93112722279927689FA0017B
:10081E008F9F302D410D591F6B9F300D411D591F5C
:10082E008E9F27D0BF9F25D06A9F23D0BE9F1DD0FD
:10083E00AF9F1BD0AE9F110D291F391F491F591F86
:10084E00E32FF42F652F522F4F913F912F911F9130
:10085E000F9066232AF0550FEE1FFF1F661F02C072
:10086E0073954BF2CDDE5F910895100D211D391F4A
:10087E0002C0200D311D491F591F08955F93DCDE04
:10088E00703821F411200AF49FCFA4CF903809F4C8
:10089E0095CF01240894970B1BF4D4F30020F3CFCB
:1008AE00792F1F932F933F934F93112411272227B4
:1008BE0033274427552790E2AE17BF078607410717
:1008CE0030F0AE1BBF0B860B410B089401C0889411
:1008DE00551F221F331F111CAA1FBB1F881F441F29
:1008EE009A9551F7F901612D4F913F912F911F91DB
:1008FE00662332F0550FEE1FFF1F661F7A9543F2E7
:10090E007FDE5F91089599239AF0772342F097172F
:10091E0048F029F4AE17BF07860720F031F09894FF
:10092E008894089598940894089518948894089536
:10093E007723C2F7971798F3A9F7EA17FB0768070B
:10094E0088F399F3ECCFF195E195F0400895F09589
:10095E0060957095E195FF4F6F4F7F4F08956F2F04
:10096E00660F660B762F08950024112490E1AA0FCE
:10097E00BB1F001C111C0E1A1F0A18F40E0E1F1E90
:10098E0001C0A1609A9599F7FD01D001089504D098
:10099E00EBDF0EF4D8DF0895E894F7FF02C0D3DF43
:1009AE006894B7FF06C0A095B095119600F8039411
:1009BE0000FA0895E881F9816A817B810895A88102
:1009CE00B9818A819B810895E883F9836A837B8349
:1009DE0008957A936A93FA93EA9308959A938A9371
:1009EE00BA93AA930895182E862F612D192E972F3C
:1009FE00712D1B2EBF2FF12D1A2EAE2FE12D089526
:00000001FF
