:100000000C943C000C9400000C9400000C94000034
:100010000C9400000C9400000C9400000C94000060
:100020000C9400000C9400000C9400000C94000050
:100030000C9400000C9400000C9400000C94000040
:100040000C9400000C9400000C9400000C94000030
:100050000C940000FFFFFFFFFF03ECEEEC03006ECB
:100060006E6E91817C7E7E7E9DFFFFFFFFFFFF0015
:100070001B00600254000000F894EE27ECBBF1E096
:10008000FBBFEBBFE5BF8DE0A2E0BB27ED938A95F8
:10009000E9F780E098E0A0E6ED930197E9F7E0E763
:1000A000F0E085919591009761F0A591B59105904B
:1000B0001590BF01F00105900D920197E1F7FB014A
:1000C000F0CFEFE5EDBFE8E0EEBFC0E6D2E00C9484
:1000D0006900EFEFE4BBE1BB50E05031E8F431E000
:1000E0003131C0F401E010E0153090F4E12FE50F5C
:1000F0002E2FF0E0E05AFD4FE081E2BB05BBA4E00B
:10010000B0E00E948E00000FE0E0E5BB1F5FECCF87
:100110003F5FE6CF5F5FE1CFDFCFFFCF109639F0D3
:1001200080ED97E00197F1F7A8951197C9F7089529
:00000001FF
